S018000048616C6C2053656E736F7220554152542E7372656395
S11300000C9434000C943E000C943E000C943E007E
S11300100C943E000C943E000C943E000C943E0064
S11300200C943E000C943E000C943E000C943E0054
S11300300C943E000C943E000C943E000C943E0044
S11300400C943E000C943E000C943E000C943E0034
S11300500C943E000C943E000C943E000C943E0024
S11300600C943E000C943E0011241FBECFEFD8E048
S1130070DEBFCDBF0E9468000C9490000C94000079
S1130080EFE9FFE03197F1F700C00000E0ECF0E0A9
S1130090908195FFFDCF8093C6000895E4E6F0E0DB
S11300A080818D7F808387E68093C40088E180937C
S11300B0C10086E08093C2000895529A539A549ADC
S11300C0579820982198389839983A983B980895E9
S11300D00E945D000E944E004E9A5C985B985A986C
S11300E089B1881F8827881F5C9A4F9982605C9821
S11300F05B9A4F9984605C9A4F9988605C985B988E
S11301005A9A4F9980615C9A4F9980625C985B9A85
S11301104F9980645C9A4F9980680E944000DCCFBC
S1070120F894FFCF7D
S9030000FC
