S018000048616C6C2053656E736F7220554152542E7372656395
S11300000C9434000C943E000C943E000C943E007E
S11300100C943E000C943E000C943E000C943E0064
S11300200C943E000C943E000C943E000C943E0054
S11300300C943E000C943E000C943E000C943E0044
S11300400C943E000C943E000C943E000C943E0034
S11300500C943E000C943E000C943E000C943E0024
S11300600C943E000C943E0011241FBECFEFD8E048
S1130070DEBFCDBF0E947B000C94C8000C9400002E
S1130080EFE9FFE03197F1F700C00000E0ECF0E0A9
S1130090908195FFFDCF8093C6000895E0ECF0E0D9
S11300A080818823ECF78091C60090E00895E4E60F
S11300B0F0E080818D7F808387E68093C40088E1AF
S11300C08093C10086E08093C2000895529A539AA7
S11300D0549A3D983C9820982198389839983A98A1
S11300E03B980895CF93C62F0E9440008C2F0E9406
S11300F04000CF9108950E9466000E9457000E941C
S11301004E00883201F560E080E00E94720060E0F9
S113011081E00E94720060E082E00E94720062E06E
S113012083E00E94720060E084E00E94720060E05C
S113013085E00E94720060E086E00E94720060E048
S113014087E00E9472000E944E008033C1F660E096
S113015080E00E94720060E081E00E94720060E032
S113016082E00E94720064E083E00E94720060E01A
S113017084E00E94720060E085E00E94720060E00A
S113018086E00E94720060E087E00E947200B7CFB0
S1070190F894FFCF0D
S9030000FC
