:100000000C943C000C9446000C9446000C94460062
:100010000C9446000C9446000C9446000C94460048
:100020000C9446000C9446000C9446000C94460038
:100030000C9446000C9446000C9446000C94460028
:100040000C9446000C9446000C9446000C94460018
:100050000C9446000C9446000C9446000C94460008
:100060000C9446000C9446007A00620070006C000C
:10007000670075005D007F0011241FBECFEFD8E040
:10008000DEBFCDBF0E9483000C9495000C9400004D
:10009000529A539A549A3E983F98209821983898AB
:1000A00039983A983B98089590E08830910550F53A
:1000B000FC01EC5CFF4F0C948F008BB188618BB915
:1000C0005A9808955B9A8BB18B7E8BB908955C9A90
:1000D0008BB1837F8BB908958BB1837E8BB90895E3
:1000E0005A9A8BB1877E8BB908958BB184618BB995
:1000F0005B9808958BB18C608BB95C9808958BB137
:100100008C618BB908950E9448004E9A86E00E9447
:1001100054004E9902C02A9AF8CF2A98F6CFEE0FD3
:0E012000FF1F0590F491E02D0994F894FFCF95
:00000001FF
