:100000000C943C000C9446000C9446000C94460062
:100010000C9446000C9446000C9446000C94460048
:100020000C9446000C9446000C9446000C94460038
:100030000C9446000C9446000C9446000C94460028
:100040000C9446000C9446000C9446000C94460018
:100050000C9446000C9446000C9446000C94460008
:100060000C9446000C944600A00088009600920074
:100070008D009B008300A50011241FBECFEFD8E0A8
:10008000DEBFCDBF0E9492010C9434020C9400009C
:10009000EFE9FFE03197F1F700C00000E0ECF0E09D
:1000A000908195FFFDCF8093C6000895E0ECF0E0CD
:1000B00080818823ECF78091C60090E00895E4E603
:1000C000F0E080818D7F808387E68093C40088E1A3
:1000D0008093C10086E08093C2000895529A539A9B
:1000E000549A5698579820982198389839983A9861
:1000F0003B98089590E08830910550F5FC01EC5C48
:10010000FF4F0C942E028BB188618BB95A980895D9
:100110005B9A8BB18B7E8BB908955C9A8BB1837F90
:100120008BB908958BB1837E8BB908955A9A8BB1A0
:10013000877E8BB908958BB184618BB95B980895E4
:100140008BB18C608BB95C9808958BB18C618BB945
:100150000895DF92EF92FF920F931F93CF93DF9357
:1001600091E0823009F490E001E010E002C0000F5D
:10017000111F9A95E2F7C0E0D0E0D12CEE24E39471
:10018000F12C8C2F0E947A001E9A83B190E080237C
:100190009123892BB9F42FEF89E698E12150804013
:1001A0009040E1F700C0000083B190E080239123EC
:1001B000892B41F4C7010C2E02C0880F991F0A94A5
:1001C000E2F7D82A2196C830D105D9F68D2DDF91D6
:1001D000CF911F910F91FF90EF90DF900895DF92E4
:1001E000EF92FF920F931F93CF93DF93843031F000
:1001F000853031F0863031F083E005C080E003C007
:1002000081E001C082E001E010E002C0000F111F98
:100210008A95E2F7C0E0D0E0D12CEE24E394F12CF3
:100220008C2F0E947A00369A86B190E08023912329
:10023000892BB9F42FEF89E698E121508040904056
:10024000E1F700C0000086B190E080239123892B64
:1002500041F4C7010C2E02C0880F991F0A94E2F7DF
:10026000D82A2196C830D105D9F68D2DDF91CF91AE
:100270001F910F91FF90EF90DF900895DF92EF9222
:10028000FF920F931F93CF93DF93882311F087E0A2
:1002900001C086E001E010E002C0000F111F8A9546
:1002A000E2F7C0E0D0E0D12CEE24E394F12C8C2FC7
:1002B0000E947A004E9A89B190E080239123892B85
:1002C000B9F42FEF89E698E1215080409040E1F7A2
:1002D00000C0000089B190E080239123892B41F474
:1002E000C7010C2E02C0880F991F0A94E2F7D82A82
:1002F0002196C830D105D9F68D2DDF91CF911F9170
:100300000F91FF90EF90DF900895CF93C62F0E943A
:1003100048008C2F0E944800CF9108952A9A089592
:100320002A9808950E946E00229A0E9490010E94CD
:100330005F000E945600D82E80E00E943E01C82F28
:1003400082E00E94A900182F83E00E94A900082FD4
:1003500084E00E94EF00E82E85E00E94EF00F82E76
:1003600087E00E94EF00D82F88E2D81220C06C2FBF
:1003700080E00E94850160E481E00E948501612F98
:1003800082E00E948501602F83E00E9485016E2D2E
:1003900084E00E9485016F2D85E00E94850160E068
:1003A00086E00E9485016D2F87E00E9485010E94F2
:1003B00056008033E1F70E948E01A02EB12EFC2E54
:1003C000D1E003C0A02EB12EFC2E80E00E943E01A1
:1003D000C82F82E00E94A900182F83E00E94A90084
:1003E000082F84E00E94EF00C82E85E00E94EF00F5
:1003F000D82E87E00E94EF00E82ECF1104C01B1119
:1004000002C00A1539F16C2F80E00E94850160E47A
:1004100081E00E948501612F82E00E948501602FAA
:1004200083E00E9485016C2D84E00E9485016D2D82
:1004300085E00E94850160E086E00E9485016E2DC6
:1004400087E00E948501DF5FD23021F40E94900195
:10045000D0E0B8CFD23008F4B5CFA9CFEE0FFF1F50
:0C0460000590F491E02D0994F894FFCF72
:00000001FF
