:100000000C9434000C943E000C943E000C943E0082
:100010000C943E000C943E000C943E000C943E0068
:100020000C943E000C943E000C943E000C943E0058
:100030000C943E000C943E000C943E000C943E0048
:100040000C943E000C943E000C943E000C943E0038
:100050000C943E000C943E000C943E000C943E0028
:100060000C943E000C943E0011241FBECFEFD8E04C
:10007000DEBFCDBF0E9469000C9478000C94000094
:10008000E4E6F0E080818D7F808387E68093C40082
:1000900088E18093C10086E08093C2000895529A5F
:1000A000539A549A56985798209821983898399886
:1000B0003A983B9808959BB1937E9BB982FF02C00A
:1000C0005C9A089581FF02C05B9A089580FD5A9A58
:1000D00008950E944F00229A0E9440004E9A82E0AA
:1000E0000E945B004E9902C02A9AF8CF2A98F6CF58
:0400F000F894FFCFB2
:00000001FF
