S018000048616C6C2053656E736F7220554152542E7372656395
S11300000C943C000C9446000C9446000C9446005E
S11300100C9446000C9446000C9446000C94460044
S11300200C9446000C9446000C9446000C94460034
S11300300C9446000C9446000C9446000C94460024
S11300400C9446000C9446000C9446000C94460014
S11300500C9446000C9446000C9446000C94460004
S11300600C9446000C944600A00088009600920070
S11300708D009B008300A50011241FBECFEFD8E0A4
S1130080DEBFCDBF0E9461010C9424020C940000D9
S1130090EFE9FFE03197F1F700C00000E0ECF0E099
S11300A0908195FFFDCF8093C6000895E0ECF0E0C9
S11300B080818823ECF78091C60090E00895E4E6FF
S11300C0F0E080818D7F808387E68093C40088E19F
S11300D08093C10086E08093C2000895529A539A97
S11300E0549A3E983F9820982198389839983A988D
S11300F03B98089590E08830910550F5FC01EC5C44
S1130100FF4F0C941E028BB188618BB95A980895E5
S11301105B9A8BB18B7E8BB908955C9A8BB1837F8C
S11301208BB908958BB1837E8BB908955A9A8BB19C
S1130130877E8BB908958BB184618BB95B980895E0
S11301408BB18C608BB95C9808958BB18C618BB941
S11301500895DF92EF92FF920F931F93CF93DF9353
S113016091E0823009F490E001E010E002C0000F59
S1130170111F9A95E2F7C0E0D0E0D12CEE24E3946D
S1130180F12C8C2F0E947A001E9A83B190E0802378
S11301909123892B41F4C7010C2E02C0880F991FAB
S11301A00A94E2F7D82A2196C830D10551F78D2D4B
S11301B0DF91CF911F910F91FF90EF90DF90089501
S11301C0DF92EF92FF920F931F93CF93DF938430CC
S11301D031F0853031F0863031F083E005C080E0C5
S11301E003C081E001C082E001E010E002C0000F22
S11301F0111F8A95E2F7C0E0D0E0D12CEE24E394FD
S1130200F12C8C2F0E947A00369A86B190E08023DC
S11302109123892B41F4C7010C2E02C0880F991F2A
S11302200A94E2F7D82A2196C830D10551F78D2DCA
S1130230DF91CF911F910F91FF90EF90DF90089580
S1130240DF92EF92FF920F931F93CF93DF93882354
S113025011F087E001C086E001E010E002C0000F69
S1130260111F8A95E2F7C0E0D0E0D12CEE24E3948C
S1130270F12C8C2F0E947A004E9A89B190E0802351
S11302809123892B41F4C7010C2E02C0880F991FBA
S11302900A94E2F7D82A2196C830D10551F78D2D5A
S11302A0DF91CF911F910F91FF90EF90DF90089510
S11302B0CF93C62F0E9448008C2F0E944800CF91F4
S11302C008956F927F928F929F92AF92BF92CF9236
S11302D0DF92EF92FF920F931F93CF93DF930E94CD
S11302E06E000E945F0080E00E942001C82E81E021
S11302F00E942001877FB82E82E00E94A900A82EC8
S113030083E00E94A900982E84E00E94E000882ED9
S113031085E00E94E000682E87E00E94E000782ECD
S11303200E945600883201F56C2D80E00E9458012D
S11303306B2D81E00E9458016A2D82E00E945801D1
S1130340692D83E00E945801682D84E00E945801C1
S1130350662D85E00E94580160E086E00E94580105
S1130360672D87E00E9458010E945600803309F0EF
S113037054C001C07E2C80E00E942001C82F81E07F
S11303800E942001D82FD77F82E00E94A900182F55
S113039083E00E94A900082F84E00E94E000F82E68
S11303A085E00E94E000D82E87E00E94E000E82E5D
S11303B0CC120CC0BD120AC0A11208C0901206C013
S11303C08F1004C06D1002C07816A1F26C2F80E06B
S11303D00E9458016D2F81E00E945801612F82E034
S11303E00E945801602F83E00E9458016F2D84E021
S11303F00E9458016D2D85E00E94580160E086E05E
S11304000E9458016E2D87E00E9458016D2C8F2C9C
S1130410902EA12EBD2ECC2EADCF80E090E0DF91AA
S1130420CF911F910F91FF90EF90DF90CF90BF90ED
S1130430AF909F908F907F906F900895EE0FFF1F65
S10F04400590F491E02D0994F894FFCF8E
S9030000FC
