:100000000C943C000C9446000C9446000C94460062
:100010000C9446000C9446000C9446000C94460048
:100020000C9446000C9446000C9446000C94460038
:100030000C9446000C9446000C9446000C94460028
:100040000C9446000C9446000C9446000C94460018
:100050000C9446000C9446000C9446000C94460008
:100060000C9446000C9446007A007F0084008900BE
:100070008D00920097009C0011241FBECFEFD8E0A6
:10008000DEBFCDBF0E94A0000C94B8000C9400000D
:10009000EFE9FFE03197F1F700C00000E0ECF0E09D
:1000A000908195FFFDCF8093C6000895E4E6F0E0CF
:1000B00080818D7F808387E68093C40088E1809370
:1000C000C10086E08093C2000895529A539A549AD0
:1000D0005698579820982198389839983A983B988C
:1000E000089590E08830910550F5FC01EC5CFF4FDD
:1000F0000C94B20088B1886188B942980895439AF7
:1001000088B18B7E88B9089588B1886188B9429892
:10011000089588B1837E88B90895429A88B1877E10
:1001200088B9089588B1846188B94398089588B1E1
:100130008C6088B94498089588B18C6188B9089515
:100140000E9465000E945600C1E04E9A80E00E9425
:10015000710089B186FB882780F98C2781950E94E0
:100160004800F3CFEE0FFF1F0590F491E02D0994A6
:04017000F894FFCF31
:00000001FF
