S018000048616C6C2053656E736F7220554152542E7372656395
S11300000C943C000C944E000C944E000C944E0046
S11300100C944E000C944E000C944E000C944E0024
S11300200C944E000C944E000C944E000C944E0014
S11300300C944E000C944E000C944E000C944E0004
S11300400C944E000C944E000C944E000C944E00F4
S11300500C944E000C944E000C944E000C944E00E4
S11300600C944E000C944E00A80090009E009A0040
S11300709500A3008B00AD0011241FBECFEFD8E084
S1130080DEBFCDBF21E0A0E0B1E001C01D92A031F0
S1130090B207E1F70E948F010C94A6010C940000B2
S11300A0EFE9FFE03197F1F700C00000E0ECF0E089
S11300B0908195FFFDCF8093C6000895E0ECF0E0B9
S11300C080818823ECF78091C60090E00895E4E6EF
S11300D0F0E080818D7F808387E68093C40088E18F
S11300E08093C10086E08093C2000895529A539A87
S11300F0549A5698579820982198389839983A984D
S11301003B98089590E08830910550F5FC01EC5C33
S1130110FF4F0C94A0018BB188618BB95A9820C011
S11301205B9A8BB18B7E8BB91BC05C9A8BB1837F3E
S11301308BB916C08BB1837E8BB912C05A9A8BB11E
S1130140877E8BB90DC08BB184618BB95B9808C075
S11301508BB18C608BB95C9803C08BB18C618BB90B
S11301608FE39CE90197F1F700C000000895DF9246
S1130170EF92FF920F931F93CF93DF9391E082301E
S113018009F490E001E010E002C0000F111F9A95FD
S1130190E2F7C0E0D0E0D12CEE24E394F12C8C2FD4
S11301A00E9482001E9A83B190E080239123892BC0
S11301B0B9F42FEF84E39CE0215080409040E1F7B4
S11301C000C0000083B190E080239123892B41F487
S11301D0C7010C2E02C0880F991F0A94E2F7D82A8F
S11301E02196C830D105D9F68D2DDF91CF911F917D
S11301F00F91FF90EF90DF900895CF93C62F0E9448
S113020050008C2F0E945000CF910895109203014A
S113021080E48093050182E00E94B70080930A0184
S113022010920B0110920E0110920001109207011E
S1130230109208016091030180E00E94FD0060912A
S1130240050181E00E94FD0060910A0182E00E94A4
S1130250FD0060910B0183E00E94FD0060910E019E
S113026084E00E94FD006091000185E00E94FD0091
S11302706091070186E00E94FD006091080187E01B
S11302800E94FD00089580910A018093090182E093
S11302900E94B70080930A01909109018917F1F136
S11302A02FEF84E39CE0215080409040E1F700C0B0
S11302B0000082E00E94B70080930A019091090136
S11302C0891761F16091030180E00E94FD00609153
S11302D0050181E00E94FD0060910A0182E00E9414
S11302E0FD0060910B0183E00E94FD0060910E010E
S11302F084E00E94FD006091000185E00E94FD0001
S11303006091070186E00E94FD006091080187E08A
S11303100E94FD0080910A018093090108950E94C2
S113032076000E9467000E945E00883211F40E94E9
S113033006010E945E008033B1F70E944301FDCFA5
S1130340EE0FFF1F0590F491E02D0994F894FFCF70
S9030000FC
