:100000000C943C000C9446000C9446000C94460062
:100010000C9446000C9446000C9446000C94460048
:100020000C9446000C9446000C9446000C94460038
:100030000C9446000C9446000C9446000C94460028
:100040000C9446000C9446000C9446000C94460018
:100050000C9446000C9446000C9446000C94460008
:100060000C9446000C944600A00088009600920074
:100070008D009B008300A50011241FBECFEFD8E0A8
:10008000DEBFCDBF0E9485010C9429020C940000B4
:10009000EFE9FFE03197F1F700C00000E0ECF0E09D
:1000A000908195FFFDCF8093C6000895E0ECF0E0CD
:1000B00080818823ECF78091C60090E00895E4E603
:1000C000F0E080818D7F808387E68093C40088E1A3
:1000D0008093C10086E08093C2000895529A539A9B
:1000E000549A5698579820982198389839983A9861
:1000F0003B98089590E08830910550F5FC01EC5C48
:10010000FF4F0C9423028BB188618BB95A980895E4
:100110005B9A8BB18B7E8BB908955C9A8BB1837F90
:100120008BB908958BB1837E8BB908955A9A8BB1A0
:10013000877E8BB908958BB184618BB95B980895E4
:100140008BB18C608BB95C9808958BB18C618BB945
:100150000895DF92EF92FF920F931F93CF93DF9357
:1001600091E0823009F490E001E010E002C0000F5D
:10017000111F9A95E2F7C0E0D0E0D12CEE24E39471
:10018000F12C8C2F0E947A001E9A83B190E080237C
:100190009123892BA1F48FE39CE90197F1F700C02B
:1001A000000083B190E080239123892B41F4C701A3
:1001B0000C2E02C0880F991F0A94E2F7D82A2196C4
:1001C000C830D105F1F68D2DDF91CF911F910F91A0
:1001D000FF90EF90DF900895DF92EF92FF920F93E0
:1001E0001F93CF93DF93843031F0853031F0863028
:1001F00031F083E005C080E003C081E001C082E00F
:1002000001E010E002C0000F111F8A95E2F7C0E084
:10021000D0E0D12CEE24E394F12C8C2F0E947A00B4
:10022000369A86B190E080239123892BA1F48FE345
:100230009CE90197F1F700C0000086B190E08023AF
:100240009123892B41F4C7010C2E02C0880F991FFE
:100250000A94E2F7D82A2196C830D105F1F68D2DFF
:10026000DF91CF911F910F91FF90EF90DF90089554
:10027000DF92EF92FF920F931F93CF93DF93882328
:1002800011F087E001C086E001E010E002C0000F3D
:10029000111F8A95E2F7C0E0D0E0D12CEE24E39460
:1002A000F12C8C2F0E947A004E9A89B190E0802325
:1002B0009123892BA1F48FE39CE90197F1F700C00A
:1002C000000089B190E080239123892B41F4C7017C
:1002D0000C2E02C0880F991F0A94E2F7D82A2196A3
:1002E000C830D105F1F68D2DDF91CF911F910F917F
:1002F000FF90EF90DF900895CF93C62F0E944800A3
:100300008C2F0E944800CF910895CF92DF92EF92F8
:10031000FF920F931F93CF93DF930E946E000E9472
:100320005F0080E00E943801D82E81E00E943801F1
:10033000D82FD77F82E00E94A900E82E83E00E9498
:10034000A900F82E84E00E94EC00082F85E00E94AE
:10035000EC00182F87E00E94EC00C82F0E94560086
:10036000883201F56D2D80E00E947C016D2F81E0C7
:100370000E947C016E2D82E00E947C016F2D83E043
:100380000E947C01602F84E00E947C01612F85E047
:100390000E947C0160E086E00E947C016C2F87E077
:1003A0000E947C010E945600803309F041C080E029
:1003B0000E943801C82E81E00E943801C82FC77FF3
:1003C00082E00E94A900D82E83E00E94A900E82EB6
:1003D00084E00E94EC00F82E85E00E94EC00082FDB
:1003E00087E00E94EC00182FDC1709F36C2D80E0E9
:1003F0000E947C016C2F81E00E947C016D2D82E0C7
:100400000E947C016E2D83E00E947C016F2D84E0B0
:100410000E947C01602F85E00E947C0160E086E004
:100420000E947C01612F87E00E947C01DC2FBFCFFE
:1004300080E090E0DF91CF911F910F91FF90EF90BE
:10044000DF90CF900895EE0FFF1F0590F491E02DFF
:060450000994F894FFCFAF
:00000001FF
