:100000000C9434000C943E000C943E000C943E0082
:100010000C943E000C943E000C943E000C943E0068
:100020000C943E000C943E000C943E000C943E0058
:100030000C943E000C943E000C943E000C943E0048
:100040000C943E000C943E000C943E000C943E0038
:100050000C943E000C943E000C943E000C943E0028
:100060000C943E000C943E0011241FBECFEFD8E04C
:10007000DEBFCDBF0E949D000C94A7000C94000031
:10008000EFE9FFE03197F1F700C00000E0ECF0E0AD
:10009000908195FFFDCF8093C6000895E4E6F0E0DF
:1000A00080818D7F808387E68093C40088E1809380
:1000B000C10086E08093C2000895529A539A549AE0
:1000C0005698579820982198389839983A983B989C
:1000D000089582FF02C05C9A01C05C9881FF02C053
:1000E0005B9A01C05B9880FF02C05A9A08955A98A3
:1000F0000895EF92FF921F93CF93DF93C0E0D0E07B
:1001000010E0EE24E394F12C8C2F0E9469004E9AAB
:100110004E9908C0C7010C2E02C0880F991F0A947F
:10012000E2F7182B2196C830D10571F7812FDF91A6
:10013000CF911F91FF90EF9008950E945D000E9463
:100140004E0080E00E9479000E944000FACFF894AF
:02015000FFCFDF
:00000001FF
