:100000000C94CC000C94E9000C94E9000C94E900E9
:100010000C94E9000C94E9000C94E9000C94E900BC
:100020000C94E9000C94E9000C94E9000C94E900AC
:100030000C94E9000C94E9000C94E9000C94E9009C
:100040000C94E9000C94E9000C94E9000C94E9008C
:100050000C94E9000C94E9000C94E9000C94E9007C
:100060000C94E9000C94E9000A53746174757320D0
:100070006661696C21000A4661696C21000A53754A
:10008000636365737321000A54657374696E672E28
:100090002E2E000A57726974696E672E2E2E000A82
:1000A000436F6E74696E75652074657374696E67ED
:1000B00020454550524F4D2066726F6D2074657219
:1000C0006D696E616C21000A5374617475732066EA
:1000D00061696C21000A53746174757320666169EB
:1000E0006C21000A50616765207772697465206130
:1000F0006E642072656164206661696C21000A503B
:1001000061676520777269746520616E642072652D
:100110006164207375636365737321000A526561BE
:1001200064696E6720313620627974657320667267
:100130006F6D2070616765203520000A5772697401
:10014000696E6720313620627974657320746F2080
:1001500070616765203520000A53746174757320DF
:100160006661696C21000A5374617475732066615D
:10017000696C21000A5265616420627974652046C9
:10018000726F6D20656570726F6D006364696E6F6C
:1001900070737578585B000011241FBECFEFD8E054
:1001A000DEBFCDBF11E0A0E0B1E0E8E4F4E102C0C1
:1001B00005900D92A63BB107D9F711E0A6EBB1E08F
:1001C00001C01D92AC3BB107E1F70E94EF010C9416
:1001D000220A0C9400001F93CF93DF93EC01162F9B
:1001E0000E9488030E94B203883011F59E0120709E
:1001F0003770220F232F221F330B3195822F806AF5
:100200000E9494030E94B203883191F48C2F0E94C3
:1002100094030E94B203883259F4812F0E94940300
:100220000E94B203883221F40E94900380E001C052
:1002300081E0DF91CF911F9108951F93CF93DF93BA
:10024000182FEB010E9488030E94B203883011F539
:10025000812F8295807F869586958695806A0E94FB
:1002600094030E94B2038831A9F480E00E949403B1
:100270000E94B203883271F410E189910E949403C4
:100280000E94B203883231F41150B9F70E949003F2
:1002900080E001C081E0DF91CF911F910895EF923E
:1002A000FF920F931F93DF93CF930F92CDB7DEB7DB
:1002B0007C018B010E9488030E94B203883091F573
:1002C000C701880F892F881F990B9195282F2E70B1
:1002D0002983822F806A0E9494030E94B20388318E
:1002E00009F58E2D0E9494030E94B2038832D1F446
:1002F0000E9488030E94B2038031A1F48981816A3F
:100300000E9494030E94B203803461F40E94A80307
:10031000F80180830E94B203883521F40E94900383
:1003200080E001C081E00F90CF91DF911F910F918C
:10033000FF90EF900895EF92FF920F931F93CF934A
:10034000DF93182F062FF72E0E9488030E94B20316
:100350008830E9F51295107F169516951695812F20
:10036000806A0E9494030E94B203883181F580E084
:100370000E9494030E94B203883249F50E948803C8
:100380000E94B203803119F5812F816A0E94940383
:100390000E94B2038034D9F48F2DE02EE7017E0154
:1003A000F82EE7011FE00E949E0389930E94B2038A
:1003B000803569F41150B9F70E94A80388830E9420
:1003C000B203883521F40E94900380E001C081E0EF
:1003D000DF91CF911F910F91FF90EF9008952F9291
:1003E0003F924F925F926F927F928F929F92AF92C5
:1003F000BF92CF92DF92EF92FF920F931F93DF9302
:10040000CF93CDB7DEB7A4970FB6F894DEBF0FBE7B
:10041000CDBF80EF97E09C838B83DE015596E5EAA4
:10042000F1E080E101900D928150E1F70E94B60366
:100430000E947F0387E991E09093B9018093B8010E
:100440009093B7018093B60100D000D000D0EDB7F3
:10045000FEB7319680E091E0ADB7BEB712969C939F
:100460008E93119788E590E0938382838B819C81A2
:10047000958384830E94E803EDB7FEB736960FB6E6
:10048000F894FEBF0FBEEDBF8B819C8168E50E9492
:10049000EB00813009F440C000D084E791E0ADB7B3
:1004A000BEB712969C938E9311970E94FD030F90F6
:1004B0000F908B819C81BE016F5F7F4F0E944F0127
:1004C000813001F100D000D000D0EDB7FEB73196F9
:1004D0008AE291E0ADB7BEB712969C938E931197C6
:1004E0008B819C81938382838981848315820E947E
:1004F000E803EDB7FEB736960FB6F894FEBF0FBE11
:10050000EDBF15C000D086E691E0ADB7BEB712963C
:100510009C938E93119707C000D088E591E0EDB7CA
:10052000FEB7928381830E94FD030F900F9000D04D
:100530008BE391E0ADB7BEB712969C938E93119763
:100540000E94FD030F900F9065E1E62EF12CEC0E5A
:10055000FD1E85E0B7010E941D01813081F100D0B0
:100560008CE191E0EDB7FEB7928381830E94FD0399
:100570000F900F908E010B5F1F4F85E0B8010E9416
:100580009B01813091F0D801F70180E02D9191918C
:10059000291739F48F5F8031C9F700D08EEF90E0D2
:1005A00007C000D083EE90E00DC000D085ED90E054
:1005B000ADB7BEB712969C938E93119707C000D02B
:1005C00087EC90E0EDB7FEB7928381830E94FD0334
:1005D0008FE990E0ADB7BEB712969C938E931197BA
:1005E0000E94FD030F900F905AE3E52E51E0F52E87
:1005F000C12C48E0D42E06E611E033E0A32EB12C46
:10060000AC0EBD1E29E6822E21E0922E3E010894FA
:10061000611C711C93E9492E90E0592E87E8282E21
:1006200080E0382E00D000D0EDB7FEB7F282E18234
:10063000D482C3820E94E803ADB7BEB712961C9362
:100640000E9311971496BC92AE9213970E942004B9
:10065000EDB7FEB7928281828B819C8194838383E4
:100660000E94E803ADB7BEB712961C930E93119784
:1006700014967C926E9213970E9420040F900F9014
:10068000EDB7FEB7528241820E94FD030F900F909A
:100690008B819C8169810E94EB0000D0ADB7BEB711
:1006A00012963C922E9211970E94FD030F900F908C
:1006B0008B819C81BE016E5F7F4F0E944F01813014
:1006C00081F099818A81981741F400D08DE790E0FC
:1006D000EDB7FEB7928381830DC000D0E6E7F0E06E
:1006E00003C000D0E8E6F0E0ADB7BEB71296FC93C9
:1006F000EE9311970E94FD030F900F9093CF1092ED
:10070000B9008CE08093B80084E08093BC00089529
:1007100084EA8093BC008091BC0087FFFCCF0895E1
:1007200084E98093BC0008958093BB0084E88093A3
:10073000BC008091BC0087FFFCCF089584EC8093BF
:10074000BC008091BC0087FFFCCF8091BB00089566
:1007500084E88093BC008091BC0087FFFCCF80912F
:10076000BB0008958091B900887F08951092C5005C
:1007700087E68093C400E2ECF0E0808186608083AD
:10078000E1ECF0E080818861808308951F93182F49
:100790008A3029F48DE060E070E00E94C603809109
:1007A000C00085FFFCCF1093C60080E090E01F9151
:1007B00008951F93BC018091C00087FFFCCF10916A
:1007C000C600812F0E94C603812F90E01F910895DB
:1007D000A0E0B0E0EEEEF3E00C94FB09FE013596EC
:1007E000619171918091B8019091B901AF010E941E
:1007F00035042096E2E00C94170AA0E0B0E0E3E0B4
:10080000F4E00C94FB09FE013596619171918091A1
:10081000B8019091B901DC0113962C9113972860CF
:1008200013962C93AF010E943504E091B801F0912A
:10083000B9012381277F23832096E2E00C94170AD5
:10084000A0E0B0E0E6E2F4E00C94FB09FE0135968E
:10085000619171918091B6019091B701AF010E94B1
:10086000B1072096E2E00C94170AACE0B0E0EBE3AD
:10087000F4E00C94EB096C011B018A01FC01178266
:100880001682838181FFD1C12E010894411C511C25
:10089000F6019381F10193FD859193FF81911F01F1
:1008A000882309F4BEC1853239F493FD859193FF05
:1008B00081911F01853229F490E0B6010E9443091D
:1008C000E7CFEE24FF2420E02032B0F48B3269F031
:1008D0008C3228F4803251F0833271F40BC08D32A7
:1008E00039F0803349F421602CC02260246029C093
:1008F000286027C0206125C027FD2CC0382F305329
:100900003A3098F426FF08C08E2D880FE82EEE0CA2
:10091000EE0CE80EE30E15C08F2D880FF82EFF0C9D
:10092000FF0CF80EF30E20620CC08E3221F426FD6F
:1009300078C1206406C08C3611F4206802C0883665
:1009400049F4F10193FD859193FF81911F01882363
:1009500009F0BACF982F9554933018F090529330F5
:1009600028F40C5F1F4FFFE3F9830DC0833631F08D
:10097000833771F0833509F060C022C0F8018081AF
:1009800089830E5F1F4F420171E0A72EB12C16C064
:1009900062E0662E712C600E711EF80180809180DD
:1009A00026FF03C06E2D70E002C06FEF7FEFC40121
:1009B0002C870E94F6085C0183012C852F7717C0D5
:1009C00052E0652E712C600E711EF80180809180BE
:1009D00026FF03C06E2D70E002C06FEF7FEFC401F1
:1009E0002C870E94EB085C012C852068830123FD85
:1009F00020C008C080E290E0B6012C870E94430925
:100A0000FA942C858F2D90E0A816B90698F311C0A2
:100A1000F40127FD859127FF81914F0190E0B601F8
:100A20002C870E9443092C85F110FA940894A108A0
:100A3000B108A114B10461F7F1C0843611F0893610
:100A400049F527FF08C0F801608171818281938197
:100A50000C5F1F4F09C0F80160817181882777FD05
:100A60008095982F0E5F1F4F4FE6B42EB22297FF4E
:100A700009C090958095709561957F4F8F4F9F4FDE
:100A8000F0E8BF2AA2012AE030E00E948A09782E0D
:100A9000741845C0853731F43FEEB32EB2222AE0F8
:100AA00030E025C099EFB92EB2228F36C1F08037E1
:100AB00020F4883509F0B5C00DC0803721F08837A3
:100AC00009F0AFC002C020E1B22AB4FE0BC084E03E
:100AD000B82A08C0B4FE09C0E6E0BE2A06C028E075
:100AE00030E005C020E130E002C020E132E0B7FE96
:100AF00008C0F80160817181828193810C5F1F4F72
:100B000007C0F8016081718180E090E00E5F1F4FA7
:100B1000A2010E948A09782E7418FFE7BF22B6FE50
:100B20000BC02EEFB2227E1438F4B4FE07C0B2FC24
:100B300005C08FEEB82202C0A72C01C0AE2C8B2DB1
:100B400090E0B4FE0DC0FE01E70DF11D20812033C1
:100B500019F4E9EEBE2209C0A394B2FE06C004C097
:100B600086789070009709F0A3948B2C9924B3FC9D
:100B700014C0B0FE0FC0AF1428F4E72CEF0CEA1835
:100B8000AF2C08C0E72C06C080E290E0B6010E94BE
:100B90004309A394AF14C0F304C0AF1410F4FA18BF
:100BA00001C0FF2484FE0FC080E390E0B6010E94E4
:100BB000430982FE1FC081FE03C088E590E010C09B
:100BC00088E790E00DC0C40186789070009791F09E
:100BD00081FC02C080E201C08BE2B7FC8DE290E0B4
:100BE000B6010E94430906C080E390E0B6010E946E
:100BF0004309EA947E14C0F37A94F201E70DF11DE3
:100C0000808190E0B6010E9443097720A9F706C0D1
:100C100080E290E0B6010E944309FA94FF20C1F7F8
:100C200037CEF6012681378102C02FEF3FEFC90191
:100C30002C96E2E10C94070A20FD09C0FC0123FD7B
:100C400005C022FF02C073836283518340830895ED
:100C5000EF92FF920F931F9344FD10C046FD10C00A
:100C6000DB01FC01AA0FBB1FEE1FFF1F1094D1F781
:100C70006A0F7B1F8E1F9F1F31E003C033E001C04E
:100C800034E0660F771F881F991F3150D1F77B0121
:100C90008C01E20EF11C011D111DA8019701B70185
:100CA000CA011F910F91FF90EF900895EF92FF926C
:100CB0000F931F93CF93DF938C01C8010E9401090A
:100CC000EC0197FD09C00E94D8080097B1F77E019A
:100CD000CE01B8010E946F09CE01CDB7DEB7E6E0C4
:100CE0000C94130A8F929F92AF92BF92DF92EF9271
:100CF000FF920F931F93DF93CF930F92CDB7DEB781
:100D00004C01D62E5A01122F0E9401098B3219F084
:100D10008D3249F41068DA9409F46CC0C4010E9461
:100D2000010997FD67C0312F3D7F232F2073F1F418
:100D30008033E1F4DA9409F448C0C40139830E9495
:100D40000109398197FD41C03260883711F088353B
:100D500059F43064DA94C9F1C40139830E9401095D
:100D6000398197FF03C031C036FF3061EE24FF2484
:100D70008701282F2053283090F034FD09C02A30F5
:100D800070F036FF05C02F7D422F4151463030F0C4
:100D9000B40139830E946F09398114C02750C801FA
:100DA000B701432F39830E9428067B018C013981CA
:100DB0003260DA9469F0C40139830E9401093981F3
:100DC00097FFD7CF31FD04C015C0EE24FF24870163
:100DD00037FF08C010950095F094E094E11CF11CD9
:100DE000011D111DC501B801A701232F0E941C067A
:100DF00081E001C080E00F90CF91DF911F910F91B2
:100E0000FF90EF90DF90BF90AF909F908F900895EC
:100E1000A1E2B0E0EEE0F7E00C94EF096C018A018A
:100E200079019E012F5F3F4F80E2F90111928A956F
:100E3000E9F7F601838080E090E0BB24992470E01C
:100E4000A1E0B0E0F70183FCA59083FEA1907F01B3
:100E5000AA2009F47FC0FA2DFE3511F4009751F154
:100E6000472F50E04817590744F44A2D4D3551F1AA
:100E70004D3219F4992001F103C0992009F4BA2CDC
:100E80004A2D469546954695F901E40FF11D4A2DE8
:100E900047703D0102C0660C771C4A95E2F79080CE
:100EA00096289082AB1459F0AB1410F4A394E8CFB9
:100EB000AA94E6CF71E004C09924939401C09924C8
:100EC0000196C0CF992019F08E8180628E8377239E
:100ED00051F0CE018196FE0131962081209521931B
:100EE000E817F907D1F7BB24B3944E010894811C8D
:100EF000911C01C0BB24C60169A30E94010969A11C
:100F000097FD20C0282F269526952695F401E20FFF
:100F1000F11D208130E0AC014770507002C0359562
:100F200027954A95E2F720FD04C0B6010E946F099B
:100F300009C00115110519F0F80181938F01615065
:100F4000C9F602C0BB2031F40115110529F0F801E2
:100F5000108202C0EE24FF24C701A196EEE00C949B
:100F60000B0A4F925F926F927F929F92AF92BF92C5
:100F7000CF92DF92EF92FF920F931F93DF93CF9365
:100F80000F92CDB7DEB77C016B013A01FC011782ED
:100F9000168200E0E9C0812F90E00E94D8080097F7
:100FA00021F0C7010E945606DFC0153241F4F60158
:100FB000A3FC3591A3FE31916F01353261F4C70175
:100FC0000E94010997FDDCC0181709F4CDC0B701D4
:100FD0000E946F09D7C03A3239F4A3FC3591A3FEC1
:100FE00031916F0111E001C010E099240FC012602F
:100FF000692D70E080E090E040E20E942806962E85
:10100000F601A3FC3591A3FE31916F01232F2053EC
:101010002A3068F311FF03C0992019F4B3C0992452
:101020009A94383619F03C3689F409C0F601A3FCCD
:101030003591A3FE31916F01383641F41860146088
:10104000F601A3FC3591A3FE31916F01332309F41E
:1010500099C08BE891E0632F70E039830E94E0082B
:101060003981009709F48EC0812F10FD08C0F3016B
:101070004080518042E050E0640E751E02C044245E
:1010800055243E3651F4F7014681578160E070E007
:10109000C201212F0E941C0667C0333691F481FDE6
:1010A00002C099249394C7010E94010997FD68C06A
:1010B0004114510419F0F20181932F019A9499F788
:1010C00051C03B3559F4C701692DA20196010E9418
:1010D00008076C01009709F045C03FC0C70139837C
:1010E0000E945606398197FD4BC03F3659F1303783
:1010F00028F4343629F1393639F527C0333719F059
:10110000353711F51DC0C7010E9401095C0197FD2B
:1011100011C00E94D808009729F0C501B7010E94AC
:101120006F0908C04114510419F0F201A1922F0176
:101130009A9449F741145104A9F0F201108212C0A7
:10114000106203C0106101C01064C701692DA201C3
:10115000212F0E947206882329F4F701838180736E
:1011600079F410C010FF0F5FF701A380F601A3FC14
:101170001591A3FE11916F01112309F00CCF02C04C
:10118000002311F010E002C00FEF1FEFC8010F9015
:10119000CF91DF911F910F91FF90EF90DF90CF9053
:1011A000BF90AF909F907F906F905F904F90089509
:1011B00091110EC1803219F089508550D0F70895F1
:1011C000FC010590061621F00020D9F7C001089512
:1011D0003197CF010895FC010590615070400110D6
:1011E000D8F7809590958E0F9F1F0895FC01615050
:1011F000704001900110D8F7809590958E0F9F1F39
:101200000895CF93DF93EC013B8130FF36C036FF6A
:1012100009C03F7B3B838E819F8101969F838E8394
:101220002A8129C032FF0FC0E881F9818081992786
:1012300087FD9095009719F430623B831EC031966C
:10124000F983E88311C0EA85FB85CE01099597FFF4
:101250000BC02B813FEF8F3F930711F480E101C05A
:1012600080E2822B8B8309C02E813F812F5F3F4F0D
:101270003F832E83282F30E002C02FEF3FEFC901BC
:10128000DF91CF9108950F931F93CF93DF938C013C
:10129000EB018B8181FF1BC082FF0DC02E813F813E
:1012A0008C819D812817390764F4E881F9810193C5
:1012B000F983E88306C0E885F985802F09950097B2
:1012C00031F48E819F8101969F838E8302C00FEF40
:1012D0001FEFC801DF91CF911F910F910895FB017E
:1012E000238120FF13C026FD11C03FEF8F3F9307DE
:1012F00069F0828320642F7D2383268137812150EA
:10130000304037832683282F30E002C02FEF3FEF95
:10131000C9010895FA01AA27283051F1203181F13D
:10132000E8946F936E7F6E5F7F4F8F4F9F4FAF4FED
:10133000B1E03ED0B4E03CD0670F781F891F9A1F00
:10134000A11D680F791F8A1F911DA11D6A0F711DB4
:10135000811D911DA11D20D009F468943F912AE0C0
:10136000269F11243019305D3193DEF6CF010895A8
:10137000462F4770405D4193B3E00FD0C9F7F6CFD9
:10138000462F4F70405D4A3318F0495D31FD4052A1
:10139000419302D0A9F7EACFB4E0A6959795879537
:1013A00077956795BA95C9F7009761057105089516
:1013B0009B01AC010A2E06945795479537952795C2
:1013C000BA95C9F7620F731F841F951FA01D08955A
:1013D0009927882708952F923F924F925F926F929C
:1013E0007F928F929F92AF92BF92CF92DF92EF92B5
:1013F000FF920F931F93CF93DF93CDB7DEB7CA1B36
:10140000DB0B0FB6F894DEBF0FBECDBF09942A8860
:10141000398848885F846E847D848C849B84AA8408
:10142000B984C884DF80EE80FD800C811B81AA8195
:10143000B981CE0FD11D0FB6F894DEBF0FBECDBF60
:08144000ED010895F894FFCFBF
:101448000A577269746520627974652025233034DF
:101458007820746F20656570726F6D2061646472A6
:10146800657373202523303478000A2A2523303405
:1014780078203D202523303478000A456E74657243
:1014880020454550524F4D20616464726573732046
:10149800746F20777269746520284D4158203D206B
:1014A8002575293A2000257500456E7465722064FB
:1014B80061746120746F20777269746520746F207D
:1014C800454550524F4D20617420616464726573C4
:1014D800732025753A20000000000300000000C6B4
:1014E80003D90300000A2CFF2E50572B82D2170174
:0614F8003A2E960C2E00B6
:00000001FF
