S00B00005344502E7372656332
S11300000C9434000C943E000C943E000C943E007E
S11300100C943E000C943E000C943E000C943E0064
S11300200C943E000C943E000C943E000C943E0054
S11300300C943E000C943E000C943E000C943E0044
S11300400C943E000C943E000C943E000C943E0034
S11300500C943E000C943E000C943E000C943E0024
S11300600C943E000C943E0011241FBECFEFD8E048
S1130070DEBFCDBF0E9493000C949B000C94000043
S11300801092B9008CE08093B80084E08093BC00A7
S1130090089584EA8093BC00ECEBF0E0808188232F
S11300A0ECF708958093BB0084E88093BC00ECEBEC
S11300B0F0E080818823ECF708951F93CF93DF93BA
S11300C0EC01162F0E9449008091B900883001F597
S11300D0CE01880F892F881F990B9195806A0E9401
S11300E052008091B9008831A9F48C2F0E945200EB
S11300F08091B900883281F4812F0E94520080914E
S1130100B900883259F484E98093BC0080E007C0C8
S113011081E005C081E003C081E001C081E0DF919E
S1130120CF911F9108950E9440006FE08FE090E00E
S10D01300E945D00FACFF894FFCF9F
S9030000FC
